{
  "address": "0xF2dA348dD5E2DEd12f01a59C76189d1355947dc1",
  "abi": [
    {
      "inputs": [
        {
          "internalType": "address",
          "name": "taxCollector_",
          "type": "address"
        }
      ],
      "stateMutability": "nonpayable",
      "type": "constructor"
    },
    {
      "anonymous": false,
      "inputs": [
        {
          "indexed": true,
          "internalType": "address",
          "name": "owner",
          "type": "address"
        },
        {
          "indexed": true,
          "internalType": "address",
          "name": "spender",
          "type": "address"
        },
        {
          "indexed": false,
          "internalType": "uint256",
          "name": "value",
          "type": "uint256"
        }
      ],
      "name": "Approval",
      "type": "event"
    },
    {
      "anonymous": false,
      "inputs": [
        {
          "indexed": true,
          "internalType": "address",
          "name": "account",
          "type": "address"
        },
        {
          "indexed": false,
          "internalType": "bool",
          "name": "isExcluded",
          "type": "bool"
        }
      ],
      "name": "ExcludeFromFees",
      "type": "event"
    },
    {
      "anonymous": false,
      "inputs": [
        {
          "indexed": true,
          "internalType": "address",
          "name": "previousOwner",
          "type": "address"
        },
        {
          "indexed": true,
          "internalType": "address",
          "name": "newOwner",
          "type": "address"
        }
      ],
      "name": "OwnershipTransferred",
      "type": "event"
    },
    {
      "anonymous": false,
      "inputs": [
        {
          "indexed": true,
          "internalType": "address",
          "name": "from",
          "type": "address"
        },
        {
          "indexed": true,
          "internalType": "address",
          "name": "to",
          "type": "address"
        },
        {
          "indexed": false,
          "internalType": "uint256",
          "name": "value",
          "type": "uint256"
        }
      ],
      "name": "Transfer",
      "type": "event"
    },
    {
      "inputs": [
        {
          "internalType": "address",
          "name": "owner",
          "type": "address"
        },
        {
          "internalType": "address",
          "name": "spender",
          "type": "address"
        }
      ],
      "name": "allowance",
      "outputs": [
        {
          "internalType": "uint256",
          "name": "",
          "type": "uint256"
        }
      ],
      "stateMutability": "view",
      "type": "function"
    },
    {
      "inputs": [
        {
          "internalType": "address",
          "name": "spender",
          "type": "address"
        },
        {
          "internalType": "uint256",
          "name": "amount",
          "type": "uint256"
        }
      ],
      "name": "approve",
      "outputs": [
        {
          "internalType": "bool",
          "name": "",
          "type": "bool"
        }
      ],
      "stateMutability": "nonpayable",
      "type": "function"
    },
    {
      "inputs": [
        {
          "internalType": "address",
          "name": "account",
          "type": "address"
        }
      ],
      "name": "balanceOf",
      "outputs": [
        {
          "internalType": "uint256",
          "name": "",
          "type": "uint256"
        }
      ],
      "stateMutability": "view",
      "type": "function"
    },
    {
      "inputs": [],
      "name": "decimals",
      "outputs": [
        {
          "internalType": "uint8",
          "name": "",
          "type": "uint8"
        }
      ],
      "stateMutability": "view",
      "type": "function"
    },
    {
      "inputs": [
        {
          "internalType": "address",
          "name": "spender",
          "type": "address"
        },
        {
          "internalType": "uint256",
          "name": "subtractedValue",
          "type": "uint256"
        }
      ],
      "name": "decreaseAllowance",
      "outputs": [
        {
          "internalType": "bool",
          "name": "",
          "type": "bool"
        }
      ],
      "stateMutability": "nonpayable",
      "type": "function"
    },
    {
      "inputs": [],
      "name": "disable24HrsRestriction",
      "outputs": [],
      "stateMutability": "nonpayable",
      "type": "function"
    },
    {
      "inputs": [],
      "name": "enable24HrsRestriction",
      "outputs": [],
      "stateMutability": "nonpayable",
      "type": "function"
    },
    {
      "inputs": [],
      "name": "enableTrading",
      "outputs": [],
      "stateMutability": "nonpayable",
      "type": "function"
    },
    {
      "inputs": [
        {
          "internalType": "address",
          "name": "account",
          "type": "address"
        }
      ],
      "name": "excludeFromFees",
      "outputs": [],
      "stateMutability": "nonpayable",
      "type": "function"
    },
    {
      "inputs": [
        {
          "internalType": "address",
          "name": "account",
          "type": "address"
        }
      ],
      "name": "includeFromFees",
      "outputs": [],
      "stateMutability": "nonpayable",
      "type": "function"
    },
    {
      "inputs": [
        {
          "internalType": "address",
          "name": "spender",
          "type": "address"
        },
        {
          "internalType": "uint256",
          "name": "addedValue",
          "type": "uint256"
        }
      ],
      "name": "increaseAllowance",
      "outputs": [
        {
          "internalType": "bool",
          "name": "",
          "type": "bool"
        }
      ],
      "stateMutability": "nonpayable",
      "type": "function"
    },
    {
      "inputs": [
        {
          "internalType": "address",
          "name": "account",
          "type": "address"
        }
      ],
      "name": "isExcludedFromFees",
      "outputs": [
        {
          "internalType": "bool",
          "name": "",
          "type": "bool"
        }
      ],
      "stateMutability": "view",
      "type": "function"
    },
    {
      "inputs": [
        {
          "internalType": "address",
          "name": "",
          "type": "address"
        }
      ],
      "name": "lastTradeTime",
      "outputs": [
        {
          "internalType": "uint256",
          "name": "",
          "type": "uint256"
        }
      ],
      "stateMutability": "view",
      "type": "function"
    },
    {
      "inputs": [],
      "name": "maxSellableAmount",
      "outputs": [
        {
          "internalType": "uint256",
          "name": "",
          "type": "uint256"
        }
      ],
      "stateMutability": "view",
      "type": "function"
    },
    {
      "inputs": [],
      "name": "maxSellableRestrictionEnabled",
      "outputs": [
        {
          "internalType": "bool",
          "name": "",
          "type": "bool"
        }
      ],
      "stateMutability": "view",
      "type": "function"
    },
    {
      "inputs": [],
      "name": "mint",
      "outputs": [],
      "stateMutability": "nonpayable",
      "type": "function"
    },
    {
      "inputs": [],
      "name": "name",
      "outputs": [
        {
          "internalType": "string",
          "name": "",
          "type": "string"
        }
      ],
      "stateMutability": "view",
      "type": "function"
    },
    {
      "inputs": [],
      "name": "owner",
      "outputs": [
        {
          "internalType": "address",
          "name": "",
          "type": "address"
        }
      ],
      "stateMutability": "view",
      "type": "function"
    },
    {
      "inputs": [
        {
          "internalType": "address",
          "name": "from_",
          "type": "address"
        },
        {
          "internalType": "uint256",
          "name": "amount_",
          "type": "uint256"
        }
      ],
      "name": "ownerBurn",
      "outputs": [],
      "stateMutability": "nonpayable",
      "type": "function"
    },
    {
      "inputs": [],
      "name": "removeMaxSellableRestriction",
      "outputs": [],
      "stateMutability": "nonpayable",
      "type": "function"
    },
    {
      "inputs": [],
      "name": "renounceOwnership",
      "outputs": [],
      "stateMutability": "nonpayable",
      "type": "function"
    },
    {
      "inputs": [
        {
          "internalType": "uint256",
          "name": "_taxAmount",
          "type": "uint256"
        }
      ],
      "name": "setBuyTaxPercentage",
      "outputs": [],
      "stateMutability": "nonpayable",
      "type": "function"
    },
    {
      "inputs": [
        {
          "internalType": "uint256",
          "name": "_maxAmount",
          "type": "uint256"
        }
      ],
      "name": "setMaxSellableAmount",
      "outputs": [],
      "stateMutability": "nonpayable",
      "type": "function"
    },
    {
      "inputs": [
        {
          "internalType": "uint256",
          "name": "_taxAmount",
          "type": "uint256"
        }
      ],
      "name": "setSellTaxPercentage",
      "outputs": [],
      "stateMutability": "nonpayable",
      "type": "function"
    },
    {
      "inputs": [
        {
          "internalType": "address",
          "name": "taxCollector_",
          "type": "address"
        }
      ],
      "name": "setTaxCollector",
      "outputs": [],
      "stateMutability": "nonpayable",
      "type": "function"
    },
    {
      "inputs": [
        {
          "internalType": "address",
          "name": "_uniswapV2Pair",
          "type": "address"
        }
      ],
      "name": "setUniswapPair",
      "outputs": [],
      "stateMutability": "nonpayable",
      "type": "function"
    },
    {
      "inputs": [],
      "name": "symbol",
      "outputs": [
        {
          "internalType": "string",
          "name": "",
          "type": "string"
        }
      ],
      "stateMutability": "view",
      "type": "function"
    },
    {
      "inputs": [],
      "name": "taxCollector",
      "outputs": [
        {
          "internalType": "address",
          "name": "",
          "type": "address"
        }
      ],
      "stateMutability": "view",
      "type": "function"
    },
    {
      "inputs": [],
      "name": "taxFeeOnBuy",
      "outputs": [
        {
          "internalType": "uint256",
          "name": "",
          "type": "uint256"
        }
      ],
      "stateMutability": "view",
      "type": "function"
    },
    {
      "inputs": [],
      "name": "taxFeeOnSell",
      "outputs": [
        {
          "internalType": "uint256",
          "name": "",
          "type": "uint256"
        }
      ],
      "stateMutability": "view",
      "type": "function"
    },
    {
      "inputs": [],
      "name": "totalSupply",
      "outputs": [
        {
          "internalType": "uint256",
          "name": "",
          "type": "uint256"
        }
      ],
      "stateMutability": "view",
      "type": "function"
    },
    {
      "inputs": [],
      "name": "trading24HrsRestrictionEnabled",
      "outputs": [
        {
          "internalType": "bool",
          "name": "",
          "type": "bool"
        }
      ],
      "stateMutability": "view",
      "type": "function"
    },
    {
      "inputs": [],
      "name": "tradingEnabled",
      "outputs": [
        {
          "internalType": "bool",
          "name": "",
          "type": "bool"
        }
      ],
      "stateMutability": "view",
      "type": "function"
    },
    {
      "inputs": [
        {
          "internalType": "address",
          "name": "",
          "type": "address"
        }
      ],
      "name": "tradingIn24Hours",
      "outputs": [
        {
          "internalType": "uint256",
          "name": "",
          "type": "uint256"
        }
      ],
      "stateMutability": "view",
      "type": "function"
    },
    {
      "inputs": [
        {
          "internalType": "address",
          "name": "recipient",
          "type": "address"
        },
        {
          "internalType": "uint256",
          "name": "amount",
          "type": "uint256"
        }
      ],
      "name": "transfer",
      "outputs": [
        {
          "internalType": "bool",
          "name": "",
          "type": "bool"
        }
      ],
      "stateMutability": "nonpayable",
      "type": "function"
    },
    {
      "inputs": [
        {
          "internalType": "address",
          "name": "sender",
          "type": "address"
        },
        {
          "internalType": "address",
          "name": "recipient",
          "type": "address"
        },
        {
          "internalType": "uint256",
          "name": "amount",
          "type": "uint256"
        }
      ],
      "name": "transferFrom",
      "outputs": [
        {
          "internalType": "bool",
          "name": "",
          "type": "bool"
        }
      ],
      "stateMutability": "nonpayable",
      "type": "function"
    },
    {
      "inputs": [
        {
          "internalType": "address",
          "name": "newOwner",
          "type": "address"
        }
      ],
      "name": "transferOwnership",
      "outputs": [],
      "stateMutability": "nonpayable",
      "type": "function"
    },
    {
      "inputs": [],
      "name": "uniswapV2Pair",
      "outputs": [
        {
          "internalType": "address",
          "name": "",
          "type": "address"
        }
      ],
      "stateMutability": "view",
      "type": "function"
    },
    {
      "stateMutability": "payable",
      "type": "receive"
    }
  ],
  "transactionHash": "0x2e11eb5b6893ee801a683b3892595352e74e1f35946bd328e13347aa71eb5040",
  "args": [
    "0x3D606153050198ECE0B9CB7998Ac94da05ac80a7"
  ],
  "numDeployments": 1,
  "solcInputHash": "de39b3b82028bd862ea9395a6213340d",
  "bytecode": "0x6080604052600a805460ff60a81b19169055600c805461ffff191690553480156200002957600080fd5b5060405162002129380380620021298339810160408190526200004c916200018c565b60405180604001604052806009815260200168477265656c616e636560b81b8152506040518060400160405280600381526020016211d49360ea1b81525081600390816200009b919062000263565b506004620000aa828262000263565b5050506000620000bf6200018860201b60201c565b600580546001600160a01b0319166001600160a01b038316908117909155604051919250906000907f8be0079c531659141344cd1fd0a4f28419497f9722a3daafe3b4186f6b6457e0908290a350600a80546001600160a01b0319166001600160a01b038316179055600160076000620001416005546001600160a01b031690565b6001600160a01b0316815260208082019290925260409081016000908120805494151560ff199586161790553081526007909252902080549091166001179055506200032f565b3390565b6000602082840312156200019f57600080fd5b81516001600160a01b0381168114620001b757600080fd5b9392505050565b634e487b7160e01b600052604160045260246000fd5b600181811c90821680620001e957607f821691505b6020821081036200020a57634e487b7160e01b600052602260045260246000fd5b50919050565b601f8211156200025e57600081815260208120601f850160051c81016020861015620002395750805b601f850160051c820191505b818110156200025a5782815560010162000245565b5050505b505050565b81516001600160401b038111156200027f576200027f620001be565b6200029781620002908454620001d4565b8462000210565b602080601f831160018114620002cf5760008415620002b65750858301515b600019600386901b1c1916600185901b1785556200025a565b600085815260208120601f198616915b828110156200030057888601518255948401946001909101908401620002df565b50858210156200031f5787850151600019600388901b60f8161c191681555b5050505050600190811b01905550565b611dea806200033f6000396000f3fe6080604052600436106102295760003560e01c806370a0823111610123578063a56d37f9116100ab578063c00017861161006f578063c00017861461065b578063d5aed6bf1461067b578063dd62ed3e1461069b578063e57f14e1146106e1578063f2fde38b1461070157600080fd5b8063a56d37f9146105c5578063a9059cbb146105e5578063ab4ebc1e14610605578063acc7ae231461061b578063bea1dcf81461063b57600080fd5b80638da5cb5b116100f25780638da5cb5b1461053c57806395d89b411461055a5780639c0b9d741461056f5780639ec4be4114610585578063a457c2d7146105a557600080fd5b806370a08231146104c2578063715018a6146104f85780638a8c523c1461050d5780638d6366fe1461052257600080fd5b80632efa788b116101b15780634ada218b116101755780634ada218b146104105780634fbee19314610431578063537eed341461046a578063630a8a0c146104805780636da492dc146104ad57600080fd5b80632efa788b14610367578063313ce5671461037c578063395093511461039857806349bd5a5e146103b85780634ab3bdcb146103f057600080fd5b8063095ea7b3116101f8578063095ea7b3146102ce5780631249c58b146102fe578063142bc8581461031357806318160ddd1461033257806323b872dd1461034757600080fd5b806303186eef1461023557806306fdde031461027557806308695b41146102975780630907ea0b146102b957600080fd5b3661023057005b600080fd5b34801561024157600080fd5b50610262610250366004611a33565b600e6020526000908152604090205481565b6040519081526020015b60405180910390f35b34801561028157600080fd5b5061028a610721565b60405161026c9190611a55565b3480156102a357600080fd5b506102b76102b2366004611a33565b6107b3565b005b3480156102c557600080fd5b506102b76108bc565b3480156102da57600080fd5b506102ee6102e9366004611aa3565b6108f3565b604051901515815260200161026c565b34801561030a57600080fd5b506102b761090a565b34801561031f57600080fd5b50600c546102ee90610100900460ff1681565b34801561033e57600080fd5b50600254610262565b34801561035357600080fd5b506102ee610362366004611acd565b6109d0565b34801561037357600080fd5b506102b7610a81565b34801561038857600080fd5b506040516009815260200161026c565b3480156103a457600080fd5b506102ee6103b3366004611aa3565b610abc565b3480156103c457600080fd5b506006546103d8906001600160a01b031681565b6040516001600160a01b03909116815260200161026c565b3480156103fc57600080fd5b506102b761040b366004611b09565b610af8565b34801561041c57600080fd5b50600a546102ee90600160a01b900460ff1681565b34801561043d57600080fd5b506102ee61044c366004611a33565b6001600160a01b031660009081526007602052604090205460ff1690565b34801561047657600080fd5b50610262600b5481565b34801561048c57600080fd5b5061026261049b366004611a33565b600d6020526000908152604090205481565b3480156104b957600080fd5b506102b7610b76565b3480156104ce57600080fd5b506102626104dd366004611a33565b6001600160a01b031660009081526020819052604090205490565b34801561050457600080fd5b506102b7610bac565b34801561051957600080fd5b506102b7610c20565b34801561052e57600080fd5b50600c546102ee9060ff1681565b34801561054857600080fd5b506005546001600160a01b03166103d8565b34801561056657600080fd5b5061028a610cb9565b34801561057b57600080fd5b5061026260095481565b34801561059157600080fd5b506102b76105a0366004611b09565b610cc8565b3480156105b157600080fd5b506102ee6105c0366004611aa3565b610d40565b3480156105d157600080fd5b506102b76105e0366004611b09565b610dd9565b3480156105f157600080fd5b506102ee610600366004611aa3565b610e51565b34801561061157600080fd5b5061026260085481565b34801561062757600080fd5b506102b7610636366004611a33565b610e5e565b34801561064757600080fd5b50600a546103d8906001600160a01b031681565b34801561066757600080fd5b506102b7610676366004611aa3565b610f46565b34801561068757600080fd5b506102b7610696366004611a33565b610f7e565b3480156106a757600080fd5b506102626106b6366004611b22565b6001600160a01b03918216600090815260016020908152604080832093909416825291909152205490565b3480156106ed57600080fd5b506102b76106fc366004611a33565b610fca565b34801561070d57600080fd5b506102b761071c366004611a33565b6110b4565b60606003805461073090611b55565b80601f016020809104026020016040519081016040528092919081815260200182805461075c90611b55565b80156107a95780601f1061077e576101008083540402835291602001916107a9565b820191906000526020600020905b81548152906001019060200180831161078c57829003601f168201915b5050505050905090565b6005546001600160a01b031633146107e65760405162461bcd60e51b81526004016107dd90611b8f565b60405180910390fd5b6001600160a01b0381166108475760405162461bcd60e51b815260206004820152602260248201527f54617820636f6c6c6563746f722063616e74206265207a65726f206164647265604482015261737360f01b60648201526084016107dd565b600a546001600160a01b039081169082160361089a5760405162461bcd60e51b815260206004820152601260248201527129b0b6b2903a30bc1031b7b63632b1ba37b960711b60448201526064016107dd565b600a80546001600160a01b0319166001600160a01b0392909216919091179055565b6005546001600160a01b031633146108e65760405162461bcd60e51b81526004016107dd90611b8f565b600c805461ff0019169055565b600061090033848461119f565b5060015b92915050565b6005546001600160a01b031633146109345760405162461bcd60e51b81526004016107dd90611b8f565b600a54600160a81b900460ff16156109875760405162461bcd60e51b8152602060048201526016602482015275546f6b656e7320616c7265616479206d696e7465642160501b60448201526064016107dd565b600a805460ff60a81b1916600160a81b1790556109ce6109af6005546001600160a01b031690565b6109bb6009600a611cbe565b6109c9906377359400611ccd565b6112c4565b565b6001600160a01b03831660009081526001602090815260408083203384529091528120546000198114610a6b5782811015610a5e5760405162461bcd60e51b815260206004820152602860248201527f45524332303a207472616e7366657220616d6f756e74206578636565647320616044820152676c6c6f77616e636560c01b60648201526084016107dd565b610a6b853385840361119f565b610a768585856113a3565b506001949350505050565b6005546001600160a01b03163314610aab5760405162461bcd60e51b81526004016107dd90611b8f565b600c805461ff001916610100179055565b3360008181526001602090815260408083206001600160a01b03871684529091528120549091610900918590610af3908690611ce4565b61119f565b6005546001600160a01b03163314610b225760405162461bcd60e51b81526004016107dd90611b8f565b60008111610b645760405162461bcd60e51b815260206004820152600f60248201526e496e76616c696420616d6f756e742160881b60448201526064016107dd565b600b55600c805460ff19166001179055565b6005546001600160a01b03163314610ba05760405162461bcd60e51b81526004016107dd90611b8f565b600c805460ff19169055565b6005546001600160a01b03163314610bd65760405162461bcd60e51b81526004016107dd90611b8f565b6005546040516000916001600160a01b0316907f8be0079c531659141344cd1fd0a4f28419497f9722a3daafe3b4186f6b6457e0908390a3600580546001600160a01b0319169055565b6005546001600160a01b03163314610c4a5760405162461bcd60e51b81526004016107dd90611b8f565b600a54600160a01b900460ff1615610ca45760405162461bcd60e51b815260206004820152601860248201527f54726164696e6720616c726561647920656e61626c65642e000000000000000060448201526064016107dd565b600a805460ff60a01b1916600160a01b179055565b60606004805461073090611b55565b6005546001600160a01b03163314610cf25760405162461bcd60e51b81526004016107dd90611b8f565b6014811115610d3b5760405162461bcd60e51b8152602060048201526015602482015274546178206e6f74206d6f7265207468616e2032302160581b60448201526064016107dd565b600955565b3360009081526001602090815260408083206001600160a01b038616845290915281205482811015610dc25760405162461bcd60e51b815260206004820152602560248201527f45524332303a2064656372656173656420616c6c6f77616e63652062656c6f77604482015264207a65726f60d81b60648201526084016107dd565b610dcf338585840361119f565b5060019392505050565b6005546001600160a01b03163314610e035760405162461bcd60e51b81526004016107dd90611b8f565b6014811115610e4c5760405162461bcd60e51b8152602060048201526015602482015274546178206e6f74206d6f7265207468616e2032302160581b60448201526064016107dd565b600855565b60006109003384846113a3565b6005546001600160a01b03163314610e885760405162461bcd60e51b81526004016107dd90611b8f565b6001600160a01b03811660009081526007602052604090205460ff16610ef05760405162461bcd60e51b815260206004820152601860248201527f4163636f756e7420616c726561647920696e636c75646564000000000000000060448201526064016107dd565b6001600160a01b0381166000818152600760209081526040808320805460ff19169055519182527f9d8f7706ea1113d1a167b526eca956215946dd36cc7df39eb16180222d8b5df791015b60405180910390a250565b6005546001600160a01b03163314610f705760405162461bcd60e51b81526004016107dd90611b8f565b610f7a828261177c565b5050565b6005546001600160a01b03163314610fa85760405162461bcd60e51b81526004016107dd90611b8f565b600680546001600160a01b0319166001600160a01b0392909216919091179055565b6005546001600160a01b03163314610ff45760405162461bcd60e51b81526004016107dd90611b8f565b6001600160a01b03811660009081526007602052604090205460ff161561105d5760405162461bcd60e51b815260206004820152601860248201527f4163636f756e7420616c7265616479206578636c75646564000000000000000060448201526064016107dd565b6001600160a01b038116600081815260076020908152604091829020805460ff1916600190811790915591519182527f9d8f7706ea1113d1a167b526eca956215946dd36cc7df39eb16180222d8b5df79101610f3b565b6005546001600160a01b031633146110de5760405162461bcd60e51b81526004016107dd90611b8f565b6001600160a01b0381166111435760405162461bcd60e51b815260206004820152602660248201527f4f776e61626c653a206e6577206f776e657220697320746865207a65726f206160448201526564647265737360d01b60648201526084016107dd565b6005546040516001600160a01b038084169216907f8be0079c531659141344cd1fd0a4f28419497f9722a3daafe3b4186f6b6457e090600090a3600580546001600160a01b0319166001600160a01b0392909216919091179055565b6001600160a01b0383166112015760405162461bcd60e51b8152602060048201526024808201527f45524332303a20617070726f76652066726f6d20746865207a65726f206164646044820152637265737360e01b60648201526084016107dd565b6001600160a01b0382166112625760405162461bcd60e51b815260206004820152602260248201527f45524332303a20617070726f766520746f20746865207a65726f206164647265604482015261737360f01b60648201526084016107dd565b6001600160a01b0383811660008181526001602090815260408083209487168084529482529182902085905590518481527f8c5be1e5ebec7d5bd14f71427d1e84f3dd0314c0f7b2291e5b200ac8c7c3b92591015b60405180910390a3505050565b6001600160a01b03821661131a5760405162461bcd60e51b815260206004820152601f60248201527f45524332303a206d696e7420746f20746865207a65726f20616464726573730060448201526064016107dd565b806002600082825461132c9190611ce4565b90915550506001600160a01b03821660009081526020819052604081208054839290611359908490611ce4565b90915550506040518181526001600160a01b038316906000907fddf252ad1be2c89b69c2b068fc378daa952ba7f163c4a11628f55a4df523b3ef9060200160405180910390a35050565b6001600160a01b0383166113c95760405162461bcd60e51b81526004016107dd90611cf7565b6001600160a01b0382166113ef5760405162461bcd60e51b81526004016107dd90611d3c565b600a54600160a01b900460ff168061141f57506001600160a01b03831660009081526007602052604090205460ff165b8061144257506001600160a01b03821660009081526007602052604090205460ff165b61148e5760405162461bcd60e51b815260206004820152601860248201527f54726164696e67206e6f742079657420656e61626c656421000000000000000060448201526064016107dd565b806000036114c0576114a2838360006118c2565b50506001600160a01b03166000908152600e60205260409020429055565b6001600160a01b03831660009081526007602052604081205460ff16806114ff57506001600160a01b03831660009081526007602052604090205460ff165b159050600081611510576000611548565b6006546064906001600160a01b0387811691161461153057600954611534565b6008545b61153e9085611ccd565b6115489190611d7f565b90508115611726576006546001600160a01b0386811691161461172657600c5460ff16156115d357600b548311156115d35760405162461bcd60e51b815260206004820152602860248201527f416d6f756e742069732067726561746572207468616e204d617853656c6c61626044820152671b19505b5bdd5b9d60c21b60648201526084016107dd565b600c54610100900460ff161561172657600c5460ff16801561161b57506001600160a01b0385166000908152600e602052604090205462015180906116189042611da1565b10155b1561163e576001600160a01b0385166000908152600d60205260408120556116ed565b600b546001600160a01b0386166000908152600d6020526040902054611665908590611ce4565b11156116ed576001600160a01b0385166000908152600e602052604090205462015180906116939042611da1565b10156116ed5760405162461bcd60e51b815260206004820152602360248201527f5472616e736665722072657374726963746564206265666f726520323420686f60448201526275727360e81b60648201526084016107dd565b600c5460ff1615611726576001600160a01b0385166000908152600d602052604081208054859290611720908490611ce4565b90915550505b801561175157600a546117449086906001600160a01b0316836118c2565b61174e8184611da1565b92505b61175c8585856118c2565b505050506001600160a01b03166000908152600e60205260409020429055565b6001600160a01b0382166117dc5760405162461bcd60e51b815260206004820152602160248201527f45524332303a206275726e2066726f6d20746865207a65726f206164647265736044820152607360f81b60648201526084016107dd565b6001600160a01b038216600090815260208190526040902054818110156118505760405162461bcd60e51b815260206004820152602260248201527f45524332303a206275726e20616d6f756e7420657863656564732062616c616e604482015261636560f01b60648201526084016107dd565b6001600160a01b038316600090815260208190526040812083830390556002805484929061187f908490611da1565b90915550506040518281526000906001600160a01b038516907fddf252ad1be2c89b69c2b068fc378daa952ba7f163c4a11628f55a4df523b3ef906020016112b7565b6001600160a01b0383166118e85760405162461bcd60e51b81526004016107dd90611cf7565b6001600160a01b03821661190e5760405162461bcd60e51b81526004016107dd90611d3c565b6001600160a01b038316600090815260208190526040902054818110156119865760405162461bcd60e51b815260206004820152602660248201527f45524332303a207472616e7366657220616d6f756e7420657863656564732062604482015265616c616e636560d01b60648201526084016107dd565b6001600160a01b038085166000908152602081905260408082208585039055918516815290812080548492906119bd908490611ce4565b92505081905550826001600160a01b0316846001600160a01b03167fddf252ad1be2c89b69c2b068fc378daa952ba7f163c4a11628f55a4df523b3ef84604051611a0991815260200190565b60405180910390a350505050565b80356001600160a01b0381168114611a2e57600080fd5b919050565b600060208284031215611a4557600080fd5b611a4e82611a17565b9392505050565b600060208083528351808285015260005b81811015611a8257858101830151858201604001528201611a66565b506000604082860101526040601f19601f8301168501019250505092915050565b60008060408385031215611ab657600080fd5b611abf83611a17565b946020939093013593505050565b600080600060608486031215611ae257600080fd5b611aeb84611a17565b9250611af960208501611a17565b9150604084013590509250925092565b600060208284031215611b1b57600080fd5b5035919050565b60008060408385031215611b3557600080fd5b611b3e83611a17565b9150611b4c60208401611a17565b90509250929050565b600181811c90821680611b6957607f821691505b602082108103611b8957634e487b7160e01b600052602260045260246000fd5b50919050565b6020808252818101527f4f776e61626c653a2063616c6c6572206973206e6f7420746865206f776e6572604082015260600190565b634e487b7160e01b600052601160045260246000fd5b600181815b80851115611c15578160001904821115611bfb57611bfb611bc4565b80851615611c0857918102915b93841c9390800290611bdf565b509250929050565b600082611c2c57506001610904565b81611c3957506000610904565b8160018114611c4f5760028114611c5957611c75565b6001915050610904565b60ff841115611c6a57611c6a611bc4565b50506001821b610904565b5060208310610133831016604e8410600b8410161715611c98575081810a610904565b611ca28383611bda565b8060001904821115611cb657611cb6611bc4565b029392505050565b6000611a4e60ff841683611c1d565b808202811582820484141761090457610904611bc4565b8082018082111561090457610904611bc4565b60208082526025908201527f45524332303a207472616e736665722066726f6d20746865207a65726f206164604082015264647265737360d81b606082015260800190565b60208082526023908201527f45524332303a207472616e7366657220746f20746865207a65726f206164647260408201526265737360e81b606082015260800190565b600082611d9c57634e487b7160e01b600052601260045260246000fd5b500490565b8181038181111561090457610904611bc456fea2646970667358221220c532b109f83a65eb16c55d87eee1da0865a5fe9d2439428a58958f684aae4e7764736f6c63430008130033",
  "devdoc": {
    "kind": "dev",
    "methods": {},
    "version": 1
  },
  "userdoc": {
    "kind": "user",
    "methods": {},
    "version": 1
  },
  "storageLayout": {
    "storage": [
      {
        "astId": 217,
        "contract": "contracts/Greelance.sol:Greelance",
        "label": "_balances",
        "offset": 0,
        "slot": "0",
        "type": "t_mapping(t_address,t_uint256)"
      },
      {
        "astId": 223,
        "contract": "contracts/Greelance.sol:Greelance",
        "label": "_allowances",
        "offset": 0,
        "slot": "1",
        "type": "t_mapping(t_address,t_mapping(t_address,t_uint256))"
      },
      {
        "astId": 225,
        "contract": "contracts/Greelance.sol:Greelance",
        "label": "_totalSupply",
        "offset": 0,
        "slot": "2",
        "type": "t_uint256"
      },
      {
        "astId": 227,
        "contract": "contracts/Greelance.sol:Greelance",
        "label": "_name",
        "offset": 0,
        "slot": "3",
        "type": "t_string_storage"
      },
      {
        "astId": 229,
        "contract": "contracts/Greelance.sol:Greelance",
        "label": "_symbol",
        "offset": 0,
        "slot": "4",
        "type": "t_string_storage"
      },
      {
        "astId": 111,
        "contract": "contracts/Greelance.sol:Greelance",
        "label": "_owner",
        "offset": 0,
        "slot": "5",
        "type": "t_address"
      },
      {
        "astId": 744,
        "contract": "contracts/Greelance.sol:Greelance",
        "label": "uniswapV2Pair",
        "offset": 0,
        "slot": "6",
        "type": "t_address"
      },
      {
        "astId": 748,
        "contract": "contracts/Greelance.sol:Greelance",
        "label": "_isExcludedFromFees",
        "offset": 0,
        "slot": "7",
        "type": "t_mapping(t_address,t_bool)"
      },
      {
        "astId": 750,
        "contract": "contracts/Greelance.sol:Greelance",
        "label": "taxFeeOnBuy",
        "offset": 0,
        "slot": "8",
        "type": "t_uint256"
      },
      {
        "astId": 752,
        "contract": "contracts/Greelance.sol:Greelance",
        "label": "taxFeeOnSell",
        "offset": 0,
        "slot": "9",
        "type": "t_uint256"
      },
      {
        "astId": 754,
        "contract": "contracts/Greelance.sol:Greelance",
        "label": "taxCollector",
        "offset": 0,
        "slot": "10",
        "type": "t_address"
      },
      {
        "astId": 756,
        "contract": "contracts/Greelance.sol:Greelance",
        "label": "tradingEnabled",
        "offset": 20,
        "slot": "10",
        "type": "t_bool"
      },
      {
        "astId": 759,
        "contract": "contracts/Greelance.sol:Greelance",
        "label": "tokenMinted",
        "offset": 21,
        "slot": "10",
        "type": "t_bool"
      },
      {
        "astId": 761,
        "contract": "contracts/Greelance.sol:Greelance",
        "label": "maxSellableAmount",
        "offset": 0,
        "slot": "11",
        "type": "t_uint256"
      },
      {
        "astId": 764,
        "contract": "contracts/Greelance.sol:Greelance",
        "label": "maxSellableRestrictionEnabled",
        "offset": 0,
        "slot": "12",
        "type": "t_bool"
      },
      {
        "astId": 767,
        "contract": "contracts/Greelance.sol:Greelance",
        "label": "trading24HrsRestrictionEnabled",
        "offset": 1,
        "slot": "12",
        "type": "t_bool"
      },
      {
        "astId": 771,
        "contract": "contracts/Greelance.sol:Greelance",
        "label": "tradingIn24Hours",
        "offset": 0,
        "slot": "13",
        "type": "t_mapping(t_address,t_uint256)"
      },
      {
        "astId": 775,
        "contract": "contracts/Greelance.sol:Greelance",
        "label": "lastTradeTime",
        "offset": 0,
        "slot": "14",
        "type": "t_mapping(t_address,t_uint256)"
      }
    ],
    "types": {
      "t_address": {
        "encoding": "inplace",
        "label": "address",
        "numberOfBytes": "20"
      },
      "t_bool": {
        "encoding": "inplace",
        "label": "bool",
        "numberOfBytes": "1"
      },
      "t_mapping(t_address,t_bool)": {
        "encoding": "mapping",
        "key": "t_address",
        "label": "mapping(address => bool)",
        "numberOfBytes": "32",
        "value": "t_bool"
      },
      "t_mapping(t_address,t_mapping(t_address,t_uint256))": {
        "encoding": "mapping",
        "key": "t_address",
        "label": "mapping(address => mapping(address => uint256))",
        "numberOfBytes": "32",
        "value": "t_mapping(t_address,t_uint256)"
      },
      "t_mapping(t_address,t_uint256)": {
        "encoding": "mapping",
        "key": "t_address",
        "label": "mapping(address => uint256)",
        "numberOfBytes": "32",
        "value": "t_uint256"
      },
      "t_string_storage": {
        "encoding": "bytes",
        "label": "string",
        "numberOfBytes": "32"
      },
      "t_uint256": {
        "encoding": "inplace",
        "label": "uint256",
        "numberOfBytes": "32"
      }
    }
  }
}